:020000041400E6
:1000000000800020D101001491010014930100141C
:1000100095010014970100149901001400000000DC
:100020000000000000000000000000009B01001420
:100030009D010014000000009F010014A1010014A4
:10004000A3010014A3010014A30100140000000088
:10005000A3010014A3010014A3010014A3010014C0
:1000600029920010A3010014A3010014A30100149D
:10007000A3010014D97B0010A3010014A3010014F4
:10008000A3010014A3010014F5180010A30100142B
:10009000A3010014A3010014A3010014B92C001043
:1000A000192E0010A3010014A3010014A3010014D1
:1000B000A3010014A3010014A3010014A301001460
:1000C000A3010014A3010014A3010014A301001450
:1000D000A3010014A3010014A3010014A301001440
:1000E000A3010014A3010014A3010014A301001430
:1000F00000000000A3010014A3010014A3010014D8
:1001000000000000A3010014A3010014A3010014C7
:10011000A30100147CAF0114C88A01101409000067
:10012000588D01140000002000000000588D0114BB
:100130000000081000000000588D0114008000200D
:10014000242200007CAF011400C000200000000049
:100150009002001400000010288801000000001424
:10016000000000101401000000980110440B000072
:100170000000002000000000000008100000000047
:1001800024A200200000000000C0002000000000A9
:10019000FEE7FEE7FEE7FEE7FEE7FEE7FEE7FEE737
:1001A000FEE7FEE710B50B46401A5C1AA24203D9DF
:1001B000C45843F8044BF8E710BD10B503460022BD
:1001C0001C1AA14202D943F8042BF9E710BDFFFF26
:1001D00038B572B61B4B1C4A1A601C4A5A601C4A3E
:1001E0004FF0FF33136053609360D360136153612A
:1001F0009361D36162B6174C174DAC4201D3174DD2
:1002000007E094E803000C3454F8042CFFF7CAFF0D
:10021000F3E7AC4206D254F8080B54F8041CFFF77D
:10022000CCFFF6E7DFF84000016841F4700101609F
:100230000B4B1A680AB10B4A136000F021F800F06A
:1002400017F8FEE7003105400010DF10FFF7DF016F
:1002500080E200E014010014680100149001001411
:100260000000001008ED00E088ED00E0FFFFFFFF58
:1002700001B40248844601BC604700BF551A001013
:1002800001B40248844601BC604700BF95CC001011
:10029000000000000000000000000000000000005E
:1002A000000000000000000000000000000000004E
:1002B000000000000000000000000000000000003E
:1002C000000000000000000000000000000000002E
:1002D000000000000000000000000000000000001E
:1002E000000000000000000000000000000000000E
:1002F00000000000000000000000000000000000FE
:1003000000000000000000000000000000000000ED
:1003100000000000000000000000000000000000DD
:1003200000000000000000000000000000000000CD
:1003300000000000000000000000000000000000BD
:1003400000000000000000000000000000000000AD
:10035000000000000000000000000000000000009D
:10036000000000000000000000000000000000008D
:10037000000000000000000000000000000000007D
:10038000000000000000000000000000000000006D
:10039000000000000000000000000000000000005D
:1003A00000000000002070470020704708B5F022D0
:1003B00002230321012006F0ABFC064B04229A62C3
:1003C0004FF48062C3F81822A3F5003308225A6064
:1003D000002008BD0010104010B5054B00245C60E3
:1003E000F02205230321012006F092FC204610BDD7
:1003F00000100E401F4B002270B5114604461868CD
:100400001D4E03F020F8054648B3227902235AB165
:1004100041888088401A90FBF3F3194409044FF493
:10042000A073B1FBF3F30BE0C2880089801A90FB44
:10043000F3F10A44C2F1C8021204C823B2FBF3F379
:100440004FF6C0721A400D4B1A60637913B96420DD
:1004500006F092FE4FF48063C6F8143203E0074BB7
:10046000C6F814021860003518BF01256571002018
:1004700070BD00BF049801100010104000100E4025
:100480000171704708B5082000F0BEFF044B0360FF
:100490000123037100234371024B186008BD00BFA4
:1004A000AC4701100098011000B52DED028B884279
:1004B00008EE103A034628BF0B4687B0934228BF88
:1004C00013460291C91A03904943C01A019200FBD6
:1004D0000010D21A02FB020007EE900AF8EE677ACB
:1004E00017EE900A0CF06AF812F0D6FA0CF0CCFA7B
:1004F0001E2804D8092803D80023059310E01E20E5
:10050000DFED1D7AB8EE488A28EE278A07EE900ABA
:10051000F8EEE77A28EE278ABCEEC88A8DED058AC8
:10052000059BB3F57A6F88BF4FF47A6305A888BF3F
:10053000059306F059FA019A0299039803F091FF86
:1005400003F0A8FF01AB02AA03A903F098FF039BE5
:100550008DF8113006AA029B8DF81230019B02F82B
:10056000053D0DF112010DF1110006F013FA07B06F
:10057000BDEC028B5DF804FB8FC2753C10B592B0E8
:100580001023002440200793069400F03FFF031D32
:1005900000F1440223F8024C23F8044C0433934244
:1005A000F8D1174B089018681649A023ADF82430ED
:1005B0006423ADF8263009AA06AB06F057F80323EA
:1005C0000093114B04221B68114606A800F03AFE66
:1005D00006AA0C4909A805F00CFC05A909A805F014
:1005E00081FC04AB03AA02A903F049FF02A80FC8CB
:1005F000FFF75AFF089808B100F00CFF12B010BDC9
:1006000004980110B89801100499011013B501A8BD
:100610000C4606F0F9FD019806F0FCFDA042FAD365
:1006200007F07EFA02B010BD13B5044602A80023FD
:1006300040F8043D06F0C2F94EF660212046FFF76F
:10064000E5FF6078034B03EB800006F0B7F902B0DA
:1006500010BD00BF7851011037B500240546447025
:10066000047202A840F8044D06F0A8F92C7003B0FB
:1006700030BD10B50446FFF7EFFF204610BD000067
:100680002DE9F34100240F4E054688462746444590
:1006900014DA01A8019706F091F94EF66021284678
:1006A000FFF7B4FF687806EB800006F087F94EF696
:1006B00060212846FFF7AAFF0134E8E702B0BDE851
:1006C000F08100BF785101101FB5A023ADF80830AC
:1006D00004AB0022642123F8061D03920092411C02
:1006E000044602AA03A800F011FE002808DB054B0F
:1006F0000121186801F08EF904212046FFF7C0FFA0
:1007000004B010BD049901104378072B01D8FFF7FE
:100710008BBF704701292DE9F04704460F469046EC
:1007200059D9DFF8B890DFF8B8A0061D06F02EFD05
:10073000054607F0F5F92378012B09D002D3022BE7
:1007400024D044E0304606F05FFD012323703AE0F8
:1007500055B1304606F058FD002363702046FFF780
:1007600063FF02232370E1E7606806F053FD48450C
:10077000DCD998F80030637004212046FFF780FF31
:100780002046FFF769FF2846BDE8F08765B9637822
:1007900088F8003004212046FFF772FF2046FFF75B
:1007A0005BFF0120BDE8F087606806F033FD50452F
:1007B000BCD9304606F028FD63780133DBB29F4296
:1007C00008BF002363702046FFF79EFFAEE7204678
:1007D000FFF742FFAAE70020BDE8F08760E31600BC
:1007E00040420F0030B5044689B006F0CFFC237AB2
:1007F00005460BB321238DF8153000230293ADF885
:100800001630ADF81830694B4FF4A0721B68ADF884
:100810001A200193C82207ABADF81C20009306AA4A
:100820000DF11A030DF116010DF1150004F0C6F8D3
:100830002046FFF7A3FE1FE02278EAB1ADF816309C
:10084000ADF818304FF4A073ADF81A30C823ADF8E6
:100850001C3001230293554B1B680193212207ABE7
:100860008DF81520009306AA0DF11A030DF116015B
:100870000DF1150004F0A2F82378052B00F28D800D
:10088000DFE803F003193159678A002D00F08880F2
:10089000201D06F0B9FC464B08AD1B8845F8043D09
:1008A000284606F0A1F80123237028460023079369
:1008B00006F084F874E00DB9257071E0606806F008
:1008C000A9FC3C4B98426BD903F02EFE10B10123DA
:1008D000637000E06070201D06F096FC2046FFF774
:1008E00013FF02232CE095B903212046FFF7C8FE31
:1008F000201D06F089FC627801232AB908A800F8B7
:10090000043D03F053FF00E02372032318E0606806
:1009100006F080FC284B984242D9201D06F074FC5A
:1009200063780133DBB2082B08BF002363702046D5
:10093000FFF7EAFE34E02DB1201D06F065FC04232C
:1009400023702DE0606806F065FC1C4B984227D9A7
:1009500023E07DB963784BB908A800F8045D03F083
:1009600025FF04212046FFF78BFE16E02046FFF707
:10097000ABFE12E0606806F04DFC0E4B98420FD9BA
:10098000637823B908A800F8043D03F00FFF204660
:10099000FFF762FE0523D3E715B92046FFF75CFE9B
:1009A0002078003018BF012009B030BD0499011033
:1009B0000C980110D012130040420F0000879303DF
:1009C00030B50468013A234608681D1BA84204D9C3
:1009D00012F8010F03F8010BF6E730BD07B500224E
:1009E00001A9054806F0E0FD044B0199186805F0DF
:1009F0003CFD03B05DF804FB804801100498011031
:100A000013B5074C07480022214606F0CDFD02A889
:100A1000238840F8043D05F0E7FF02B010BD00BF99
:100A20000C9801109A48011070B516460268184BD0
:100A30000D46511E9942ACB0044624D8154903A86E
:100A40000DF056F9226814490BAC13A80DF050F9BB
:100A50002946204600250DF009FB8DE83000A12332
:100A600013AA294603A806F0C7FDA84205DA2B46BB
:100A70002246A12103A806F095FE3046012100F090
:100A8000C9FF002001E04FF0FF302CB070BD00BF67
:100A9000DE2B0100A9480110BC48011008B50378FD
:100AA000532B08D1837A0A68303BD9B20B4B1868B4
:100AB00005F0D3FC06E04D2B04D1084B09681868FB
:100AC00005F0D6FC00F08CFF38B1044B186805F037
:100AD000A1FBBDE8084000F08DBF08BD04980110DF
:100AE00030B5114D8BB001242246104902A80DF0FB
:100AF000FFF8002301AA694602A806F055FD002868
:100B000010DBE1B2019A2868013405F059FB082C8A
:100B1000EAD1054B186805F07DFB054B186807F016
:100B200051FB00200BB030BD0498011004490110A6
:100B300008980110F0B597B0074618881C9B1288DA
:100B4000ADF80C200C4619881D9BADF80E001B88D3
:100B5000ADF812302378ADF810105A1E062A37D897
:100B60001D4E32682AB91D4807F04AF86FF001009F
:100B700030E01B4D03AA3146286805F0F4FA2178CD
:100B8000286805F012FB3B68C361054603AA31469D
:100B90000DA805F015F900210DA805F0A3F9A8612D
:100BA00022781049002405A80DF0A2F82B46202237
:100BB0008121009405A806F0F5FDFFF791FF0A4892
:100BC00007F01EF81E98012100F024FF204601E0E6
:100BD0004FF0FF3017B0F0BDB89801101049011068
:100BE00004980110044901102949011070B50378D7
:100BF00092B0013B0024062B05460E4611940F943B
:100C00000E940D940C940B940A941BD82146202228
:100C10000AA80CF043FD2A780C4902A80DF068F8E8
:100C20000AAB20228121009402A806F0BBFD0446F5
:100C3000FFF756FFFFF754FF3046012100F0EAFEB0
:100C4000204601E04FF0FF3012B070BD04490110A2
:100C5000F0B593B012AE002446F8204D074620228E
:100C60002146304611940F940E940D940C940B94DD
:100C70000CF014FD01252A460C4902A80DF038F8A5
:100C8000009433462022812102A806F08BFD002823
:100C900009DB0135082DEED1FFF722FF384601218F
:100CA00000F0B8FE002013B0F0BD00BF04490110F1
:100CB0002DE97043B6B00023DFF88C9214931293A1
:100CC000119310930F930E930D9301254FF000088D
:100CD0002A468149814E15A80DF00AF82A46804916
:100CE0001DA80DF005F80DAB0024019320230093FF
:100CF0001DAA81230121029415A806F07DFC2A4635
:100D0000784915A80CF0F4FF2A4677491DA80CF085
:100D1000EFFF14231DAA4FF480710294CDE90089DE
:100D200015A806F069FC224607A915A806F03CFCA8
:100D3000079A3068E9B205F090FB6C4915A806F0F7
:100D400055FD2A466A4915A80CF0D2FF2A46694982
:100D50001DA80CF0CDFF684B00930194A1231DAAA0
:100D6000214615A8013506F047FC082DB0D156A341
:100D7000D3E900230294CDE900234FF480711423BA
:100D80005E4A5F4806F038FC58495D4806F02EFD83
:100D90004FA3D3E900232146CDE900230294142375
:100DA000584A594806F028FC012300932146019433
:100DB000564A574806F020FC4FF4FA630093554A10
:100DC000019404234FF48071534806F015FC5349F5
:100DD000514806F00BFD40F2EE230093504A019477
:100DE00002234FF480714F4806F006FC4FF47A75E9
:100DF0004D494C4806F0FAFC009521460194022327
:100E00004A4A4B4806F0F8FB00952146019402231C
:100E1000484A4948494D06F0EFFB14230093214608
:100E200004230194464A474806F0E6FB224606A9F9
:100E30003F4806F0B9FB22460DF11A013E4806F084
:100E4000B3FB224608A93F4806F0AEFB22460DF14F
:100E500017012F4806F0A8FB22460AA9284806F0E9
:100E6000A3FB22460BA9284806F09EFB224609A9AF
:100E7000294806F099FB224629462A4806F094FBA9
:100E80009DF81730BDF81A20BDF81810009330688F
:100E9000089B02F0DDF90A99306805F0E9FA0B9930
:100EA000306805F0F7FA0999306805F0DEFA36A8DF
:100EB0002B8840F8A83D05F097FDFFF711FE36B0EE
:100EC000BDE87083AFF30080000000A09999B93F9E
:100ED000000000C0CCCCFC3F044901100498011074
:100EE000394901104C4901105F4901100D080010EB
:100EF000A9480110BC48011048710110B649011001
:100F0000154A0110244A0110804A0110964A011026
:100F1000074B0110174B0110804801104D070010BE
:100F2000A14B01109A48011071070010434C0110A9
:100F30008A4C0110954C0110F44C01100C980110D2
:100F40000D4D0110804D01100000084070B50546A0
:100F5000042000F059FA124C064607F0C9F84FF485
:100F60002570266000F050FA0E4A2168064602F00D
:100F70002CF90D4B0D491E60284603F07FFF0C4BEA
:100F80000C491868002204F027FD0B4B002818803C
:100F900003DBFFF78DFE002070BD4FF0FF3070BD0A
:100FA000089801100010091004980110C0470110A2
:100FB00008990110924D0110C88A0110F0B58BB04C
:100FC00006460AA801254FF0FF3300F8055D0F46DD
:100FD0001446099303F02CFC00281EDB104B11482B
:100FE000B3F9002074B109AB0021049304230691E6
:100FF00005910391029701930096006804F0DFFCCD
:1010000009980AE00423049403940297019300963C
:101010002946006804F0D3FC20460BB0F0BD00BFA9
:10102000C88A0110089901102DE9F04FDFF8C4803B
:101030002B4D8DB0002402274FF0B10B41230B91B3
:101040000193414664234FF4803209940894CDF80B
:101050001CB006940597049403970294009482466A
:1010600004F0BEF98146286807F0ACF801221D495A
:101070001D48FFF7A3FFC9F58036F60809F1805136
:1010800032460A9001F50021286807F060F8174BF6
:1010900005460121186804F05DFDC82306934FF44E
:1010A000A0730493124A0B9B0293ED0041238DE839
:1010B0000C0041466423324609940895CDF81CB0D3
:1010C00005970397504604F08BF909EB050241465A
:1010D000504603F046FE0A980DB0BDE8F08F00BF01
:1010E000089801100010091000000910089901105B
:1010F00043435132000008100121FFF795BF000063
:1011000030B58FB00024129D0B930C236B435B080A
:101110000A930A235A43C823059342230493029354
:1011200052089DF84C300792822501934FF4A0722B
:1011300041230891039200930D940C940995069510
:10114000034B6422214603F0EFFF20460FB030BD71
:101150004343423208B5000244F62063B0FBF3F08B
:10116000C0B107EE900AF8EEE77A17EE900A0BF09E
:1011700025FA11F011FC0022074B0BF073FA0BF06B
:1011800083FCFF2803D8002808BF012000E0FF20CF
:10119000C0B208BD012008BD0000494030B5284C50
:1011A000002285B01146206802F04DF9002841D098
:1011B0000388072B9FBF216803F1FF32142303FB31
:1011C0000213428898BFD3F8F0508388A3EB020340
:1011D0000289C088A2EB000000FB03F088BF6FF01B
:1011E0007F45FFF7B7FF01A9044603AB02AA2846D3
:1011F00003F045F9039911B16143090A0131029BDA
:10120000039113B163431B0A01330198029310B198
:101210006043000A013004AA01908DF8010002F831
:101220000D1D0DF101000DF102018DF8023005F0E8
:10123000B1FB03E0039003A805F0C0FB05B030BD8F
:10124000049801102DE9F04F91B093469DF8682065
:101250000F9206468A461D46002B4FD002240023DB
:101260004FF0B2094FF041080D930C930A93089385
:101270000693049302938DE80801CDF82C90642323
:1012800009940794059403944FF490321D4928461D
:1012900004F0A6F83268B168074600F18050A24019
:1012A00000F500200CF060F93368CDF82C90A340D5
:1012B0005B080C93C82306934FF4A07304930F9B11
:1012C0000293114B0093CDF828B00994CDF820A0DB
:1012D000079405940394CDF8048064234FF490326E
:1012E0000849284604F07CF83268064907EB820278
:1012F000284611B0BDE8F04F03F033BD11B0BDE892
:10130000F08F00BF00000810424C54312DE9F04727
:1013100096B0002480469A46402010230E46039340
:101320009146029400F072F82546011D00F1440335
:1013300021F8025C21F8045C043199424FF000046A
:10134000F6D1337804905A1E062A48D8294F3A68B5
:101350002AB9294806F054FC6FF0010441E0274DFA
:10136000BAF90020B9F800100093ADF8341002ABC0
:10137000ADF8362039460DAA286805F04AFA3178CA
:10138000286804F012FFD8F80030C361054602AAAD
:1013900039460DA804F02DFD21460DA804F0A2FD4C
:1013A00004220323A8611146009302A81E9BFFF7A5
:1013B00049FF3278124905A80CF09AFC2B462022EE
:1013C0008121009405A806F0EDF9FFF789FB0D488F
:1013D00006F016FC01211E9800F01CFB01E04FF006
:1013E000FF34049808B100F015F8204616B0BDE8A7
:1013F000F08700BFB898011010490110049801103F
:1014000004490110294901100BF0B4BD0BF0B2BD25
:101410000BF0B8BD0BF0B6BD00207047FEE7000032
:10142000012884B046D880B9234B24481A6800921A
:10143000009AD2011AD5009AD24342F080720192EA
:10144000019A02601A680092F2E71D4B1D481A6863
:101450000092009AD2041BD5009AD24342F48052E3
:101460000192019A02601A680092F2E7164A11602E
:101470001A6812490292029AD0011BD4029AD243EE
:1014800022F080720392039A0A601A680292F2E7CD
:101490000E4A11601A680B490292029AD20409D4CA
:1014A000029AD24322F480520392039A0A601A6885
:1014B0000292F2E704B07047543105400431054010
:1014C00050310540003105400434044008330440E5
:1014D000014B0020187070474C980110034A0123FB
:1014E0001370034A00201370704700BF4C9801101E
:1014F0001498011010B5144A037819B113491370E8
:101500000020086092F90010114A0029A8BFCBB250
:101510000020082B107013D80E4C54F823407CB1D7
:1015200013700D4A81424FF00103A8BF07481370A2
:101530000A4A0B49A8BF006813700860002010BD5C
:101540004FF0FF3010BD00BFD08A0110209801106D
:1015500024980110289801104C980110149801103B
:101560001098011038B50C4611461546FFF7C2FF1A
:1015700000280FDB15B1084B22681A60074B93F95E
:101580000030002BA8BF044A054BACBF126822688C
:101590001A60002038BD00BF20980110D08A0110C9
:1015A00010980110054B064A186804331B6818444C
:1015B000044B1B68034410681844704700500440F3
:1015C0000C5004400850044070B5D2B01549164E76
:1015D00012A80CF04BFD002556F825405CB12A46B8
:1015E0002368124902A80CF083FB02A912A80CF090
:1015F000A5FB0135F0E712AA2146019400940123CE
:101600000B4805F0F9FF0123214601940094094A93
:10161000094805F0F1FF22460849074805F0C4FFD4
:1016200052B070BDA852011028980110E752011065
:10163000F1520110015301103E5301101598011091
:1016400038B5074D002455F8240038B190E80C0057
:101650002146044806F0D4FA0134F4E738BD00BF4F
:10166000289801104453011010B50B4A86B0044667
:1016700010689288049004ABADF8142044B10021A6
:1016800000930291019106238222204603F04CFD33
:10169000002006B010BD00BF9851011007B530B151
:1016A000002101910091044BA12203F03DFD002097
:1016B00003B05DF804FB00BF5053011030B5038840
:1016C000112B85B00C4612DC002599B10B4903950E
:1016D00001EBC302029552680192A12251F8333006
:1016E00000922946204603F01FFD284603E04FF0F4
:1016F000FF3000E0084605B030BD00BF745C01104B
:10170000044B187828B9044B1B78002B14BF022017
:1017100000207047149801101C98011038B5044639
:101720000C20FFF771FE0546FEF7A3FF0F4B104993
:101730001D6020460F4C03F0A1FB00220E492068DB
:1017400004F04AF90D4B0E4918800022206804F07D
:1017500043F90C4B0C4918800022206804F03CF936
:101760000A4B1880FFF730FF002038BD1898011091
:10177000A05101100899011058530110CE8A011090
:101780005C530110CA8A011064530110CC8A011005
:10179000064B09B1186207E053F821200AB1013164
:1017A000FAE7024B43F82100002070472898011007
:1017B00010B50B4B88B0B3F900200090002104460F
:1017C00007AB08480293049103910191012300683B
:1017D00004F0F5F8044B07981C7008B010BD00BF6A
:1017E000CE8A0110089901100E9801107FB5084BA0
:1017F0000848B3F9002005A9002300910293019342
:101800001946006804F0DBF8059807B05DF804FBA2
:10181000CC8A0110089901107FB5094B0948B3F92A
:10182000002005A900230091029301931946006846
:1018300004F0C5F89DF8140007B05DF804FB00BF84
:10184000CA8A01100899011010B50E4C0E480022EA
:10185000214605F0A9FE0D4B22781A700C4A002390
:10186000D9B2013352F82140002CF9D1094B074A73
:101870001868FEF74FFF21460448BDE81040FFF707
:1018800039BE00BF0F980110F152011024980110C9
:10189000289801101898011008B5FFF709FA01F00F
:1018A00019F903F0E1F806F065FD00F053FCBDE81E
:1018B0000840FFF789BE000008B506F031F9074B74
:1018C0001868FEF78FFF064B187005F087FF18B1F8
:1018D000BDE80840FFF7E0BF08BD00BF1898011041
:1018E0001C9801102DE9F843FFF7AEFF0027DFF841
:1018F000E890324EDFF8E4803C46D9F8000003F06F
:10190000B9F90546FFF7D8FF042C06D8DFE804F044
:101910000814262C34003378B3B903242F46ECE79F
:10192000274B1A78274B53F822309B68984700289A
:10193000B4BF03240124F1E7234B1B78002BEAD02A
:10194000FFF754FF0224E9E71D4B1A781D4B53F8AB
:101950002230DB689847002821DADEE71A4B1B7833
:10196000002B08BF0024D9E7184A002333701370F6
:101970000424FFF73BFFD1E7337813B1FFF7AEFD47
:101980000BE01DB1124B1B78002BC7D1FF230021A8
:10199000104888F80030FFF7ADFD0024BEE7002FA7
:1019A000BCD0002DBAD105F043FCFF2329460948DD
:1019B00088F800302C46FFF79DFDAFE74C980110EA
:1019C00024980110289801101C98011014980110F7
:1019D000E89A01100F98011004990110D08A0110A3
:1019E00010B5FFF719FF044608B1FFF7FFFE2046C8
:1019F00010BD000008B5054B186806F0E3FB044B6A
:101A00001878BDE80840FFF7D3BE00BF0898011062
:101A10000E9801101FB548B10023029304230191D1
:101A200000936422034B182103F07EFB05B05DF8A0
:101A300004FB00BF45565431034B4FF48022C3F8DA
:101A400080200020704700BF00E100E0C269006A0A
:101A5000101A7047F0B5002403462546944217D06B
:101A6000D8691E6A801B00280EDD58691E69471C54
:101A70005F61305C0855186A5E6901301862D86889
:101A8000864203D15D6101E0224601E00134E5E7D1
:101A90001046F0BD38B53A4B00221A708268536880
:101AA00003F0F803982B04465DD00CD8802B19D096
:101AB00004D8602B57D0702B55D058E0882B52D0CB
:101AC000902B0FD053E0B82B24D004D8A02B4AD0B1
:101AD000A82B1FD04BE0C82B3CD0F82B43D0C02BF9
:101AE00045D137E09368216AE269511AE268521AD7
:101AF000002ADBB228DDA2692169501CA0618B5449
:101B0000E369A2690133E361E3689A421CD10023CF
:101B1000A36119E0237923B1637913B100239360A2
:101B20002BE0256B35B9636B616AA06A9847206327
:101B300000B3E562E36AA26A591CE162D25C236BDE
:101B4000013B2363A3689A60A36804221A600822F9
:101B50009A6138BDA37933B10023E36223636361E3
:101B6000A361E361236204231360082300E02C23B4
:101B7000936138BDA368986001232371E4E700BF37
:101B80004D980110014B1868FFF784BF5098011061
:101B9000836838229A6144221A60704710B5002386
:101BA0000446F0220321012005F0B2F80423F022BC
:101BB0000121022005F0ACF80423F02201210220CB
:101BC00005F0A6F80023F0220421012005F0A0F87A
:101BD0000423F0220021022005F09AF8064B002190
:101BE000C3F81812054B21714FF4802220461A6069
:101BF000FFF7CEFF084610BD0010104000E100E0E6
:101C0000816808B50B685B0702D4FFF7C1FF0BE0E2
:101C10004B68F82B08D1054A1378322B85BF6C230B
:101C20008B61013300231370002008BD4D98011013
:101C300013B58DF8051002A9002401F8044D806841
:101C40008DF8074005F038F8204602B010BD0000BE
:101C50002DE9F84320269946144B03600446C660DC
:101C600030460F469046FFF7D1FB002520616561A5
:101C7000A561E561256266623046FFF7C7FB012377
:101C80006371A062C4F834903846E5622563A760AA
:101C9000A571074904F0CEFF41462046FFF7C8FF73
:101CA000044B83F817532046BDE8F8830C5D011000
:101CB000A086010000E100E08171427170470000E0
:101CC00038B505463820FFF79FFB2B4654220349C1
:101CD0000446FFF7BDFF024B1C6038BD00100A40F0
:101CE00050980110F0B58BB00023384A0993099B36
:101CF000934203D8099B01330993F8E7344C05F06C
:101D00001DFF06F0B9FB2068FFF720F900F036FF51
:101D10002068FFF703FD00212E48FFF739FD00F092
:101D200019FA00212C48FFF733FD01212B48FFF75A
:101D30002FFD002419252646274600970DF11E0386
:101D400007AA0DF11A01264805F02EFC00280BDB2E
:101D5000BDF81A30022B07D1BDF81C3023B9BDF8ED
:101D60001E30142B08BF0136002208A91D4805F0BB
:101D70001BFC002804DB1C4908980CF00DF830B15E
:101D8000013DDAD106B124B905F076FA01E001345B
:101D9000F6E7142300240493022303930193009392
:101DA00005940294114A0E48012105F025FC0E4BC2
:101DB00000930E4A0194A12301210A4805F01CFC5E
:101DC000FFF790FD20460BB0F0BD00BF9F25260019
:101DD00004990110D48A0110E88A0110F88A0110D0
:101DE000385D01103E5D0110505301104871011023
:101DF00013B502AC012304F8013D204602F018FDA2
:101E00000B4B186804F006FA0A4B186806F0DAF96A
:101E10000020FFF7CDFC00F0C5FE036801229B689F
:101E2000214698470028F6D1034B187002B010BD28
:101E30000498011008980110549801102DE9F347F7
:101E400000F0B0FE494DDFF82C91DFF82C810446FC
:101E50000A262F78012F07D002D3022F18D07AE05C
:101E6000FF2388F8003074E023683A469B6869468F
:101E700020469847002870D09DF8002098F8003040
:101E800088F8002042EA0323A9F80030022363E027
:101E9000B9F80030FF2B26D123682046DB6898472D
:101EA00003285ADD23683A469B6801A920469847D3
:101EB00023683A4602AF9B680DF106014FF0000A15
:101EC0002046984707F805AD01A9384606F096F96F
:101ED00001230DF1060138468DF8033006F08EF926
:101EE00085F800A039E0FE2B0AD1236801229B6807
:101EF00069462046984780B3684602F093FB2AE083
:101F0000FD2B26D123682046DB689847022824DD74
:101F1000236801220DEB02019B6820469847236845
:101F200001229B680DF10201204698472368012297
:101F30009B680DF10301204698470DF103020DF156
:101F400002010DF1010004F025FD094B01221A7078
:101F500001E0012300E000232B70013E16F0FF0694
:101F60007FF477AF02B0BDE8F08700BF549801104E
:101F70005C980110E48A01105598011030B5244C8A
:101F800087B0206802F09AF900280BDA214B1B7801
:101F9000002B3AD0204B214819684A1C1A6005F0E2
:101FA0002FFE32E01E4B1A78062A1D4601D0FFF79D
:101FB00045FF05AB009304AA03AB02A9206801F01A
:101FC00089FB012301931748059B0093049A039B07
:101FD00002990068FFF794F800F0E4FD03681B69BC
:101FE0009847114B1B780BB9FFF7D8F80F4C2368B3
:101FF000287819688A88CB8892B29BB29A4204D119
:102000000628F7D0FFF71AFFF1E7002007B030BD30
:10201000049801101598011058980110455D0110A1
:10202000A8980110049901105C98011008980110FB
:10203000094B4FF4FA725A604FF448729A604FF0AD
:1020400000421A60054B4FF42F7159604FF46171D3
:1020500099601A60704700BF609801106C98011079
:102060004368B3F1004F37B504460D461BD0CA1A7A
:10207000C1680369694303FB021302684FF47A7174
:1020800093FBF1F313448B4201DD016003E0002B6D
:10209000B8BF00230360204602A950F8083B21F88E
:1020A000023D06F0ABF8656003B030BD30B51E4DA3
:1020B00087B0286802F002F900221146286801F072
:1020C000C2F9C0B1C38804894288E41A022194FB92
:1020D000F1F41C44838815489B1A93FBF1F11144D9
:1020E000A4B289B2C1F1A001643CFFF7B9FF214657
:1020F0000F48FFF7B5FF05AB009304AA03AB02A995
:10210000286801F0E7FA012301930A48059B009330
:10211000049A039B02990068FEF7F2FFFFF73EF86E
:10212000002007B030BD00BF04980110789801105E
:102130008C9801100499011007B502A94FF4FA73A5
:1021400040F8083B21F8023D06F058F803B05DF86E
:1021500004FB00002DE9FF41DFF8C080264F274A2D
:10216000274E284D00244FF4AF738DE818008021CE
:102170000423404605F040FA4FF41673009301948F
:102180000423214A8021384605F036FA4FF4FA73C9
:102190000093019404231D4A8021304605F02CFA57
:1021A0004FF42F73009301940423194A8021284689
:1021B00005F022FA224602A9404605F0F5F922462A
:1021C00003A9384605F0F0F9124B029ADA60039A37
:1021D0001A6102A92246304605F0E6F9224603A913
:1021E000284605F0E1F90C4B029ADA60039A1A616D
:1021F00004B0BDE8F08100BF095E01108C5D0110E4
:102200004F5E0110945E0110D15D0110145E01104B
:102210005B5E0110789801108C980110C65D01106A
:1022200007B502A8012300F8013D02F001FBFFF70A
:1022300091FF0B48FFF780FF0A48FFF77DFF0A4B2D
:102240001B680BB1FEF74CFC084B186805F0BAFF91
:102250000020FFF7ADFA002003B05DF804FB00BFDB
:10226000789801108C980110B89801100898011006
:102270000C4B002119724FF448714FF4FA72196136
:102280004FF000411A60DA605960074B1A60012272
:102290001A724FF42F72DA604FF461721A6159604A
:1022A000704700BF789801108C980110002070478B
:1022B0002DE9F0414C4B4D4C196801298EB02CD1C1
:1022C0004FF47A430893B1230793494A02900223BB
:1022D00000264FF0C80805934FF4A07703934123DD
:1022E0008DE80C004349099664234FF49032CDF8F1
:1022F00018800497206803F073F80546C0F5903104
:1023000000F1805021228DE8C001334600F5002005
:1023100002F0E2FA05F57A4243E0A1F16403632B8F
:102320004FF0000542D84FF47A430893B123079346
:1023300002230593039341234FF00A0C0193642376
:10234000029091FBF3F291FBFCF003FB12120CFBE9
:10235000101130310906B2FBFCF202F1300E41F4EB
:10236000B04242F0450242EA0E42C8274FF4A0763E
:102370000092204909954FF4903206970496206800
:1023800003F02EF88046C0F5903100F180502122F4
:102390008DE8E0002B4600F5002002F09DFA08F5DC
:1023A0007A421449206802F0DCFC1AE021238DF8FF
:1023B0002F304FF4A073ADF83430C823ADF8363069
:1023C000236801930DF1360300930DF132020DAB3A
:1023D0000CA90DF12F00ADF83050ADF8325002F0DD
:1023E00037FB0EB0BDE8F081109801100499011080
:1023F000434D56320000081010B586B006AC0023DD
:1024000044F8043D204604F0D9FA124B1B68DBB9AE
:10241000ADF80E30ADF810304FF4A073ADF81230B7
:10242000C823ADF814300C4B21221B688DF80D2009
:10243000019300940DF1120304AA0DF10E010DF1A8
:102440000D0002F005FB02E00120FFF731FF002044
:1024500006B010BD10980110049901106F4B37B5EC
:102460001D682B6804469B6801220DF10301284674
:10247000984708B90020CFE09DF8031009B96849D2
:1024800002E0082904D1674920460BF0EFFD4BE03C
:102490001029F8D0502930D1634B0022114618681A
:1024A00000F0D1FF014608B1013001D1072271E0EF
:1024B0008B884A88C8889D1A0B89181A0B88238034
:1024C0004B8840F2333203EB550353439B0AA3700E
:1024D0008B7960716A4303EB5003920AE3702271B7
:1024E0000B88072B40F29780B1F90A205B2312FB7F
:1024F00003F34E4ADB1113708DE0602902D14B4B80
:102500001B7882E0A1F15103062B2BD8464B5039A2
:1025100089B20DF10602186800F095FF014628B94E
:10252000052220460BF0BAF8052075E0421CF7D0D2
:10253000838842889D1A0389C088181ABDF806301E
:1025400023704B8840F2333203EB550353439B0A0D
:1025500063708B7920716A4303EB5003920AA37076
:10256000E270E1E758293AD12B6802229B6801A961
:102570002846984701287FF77DAF2B4BBDF8041004
:1025800018680DF1060200F05EFF014608B1431C19
:1025900004D1062220460BF081F83CE08388428873
:1025A0009D1A0389C088181ABDF8063023704B881D
:1025B00040F2333203EB550353439B0A63708B792C
:1025C00020716A4303EB5003920AA370E270B1F9E1
:1025D0000A205B2312FB03F3DB1163711BE042292A
:1025E00016D1114B00221146186800F02CFF431E33
:1025F00003339FBF428883889B1A02EB53039BBF20
:1026000040F23332534300239B0A2370012003E03E
:102610000120207000E0062003B030BDA498011016
:10262000F55E0110FA5E011004980110A0980110E7
:10263000F0B5B04B1D682B6885B004469B6801223D
:102640000DF109012846984708B90020CAE19DF814
:10265000091009B9A84902E0082905D1A74920466F
:102660000BF004FD0520BDE1102905D1A449204649
:102670000BF0FCFC0420B5E1502930D1A14B002225
:102680001146186800F0DFFE014608B1013001D1A3
:10269000072270E08B884A88C8889D1A0B89181A0F
:1026A0000B8823804B8840F2333203EB55035343AE
:1026B0009B0AA3708B7960716A4303EB5003920A03
:1026C000E37022710B88072B40F28981B1F90A204F
:1026D0005B2312FB03F38C4ADB1113707FE160294B
:1026E00002D1894B1B786AE1A1F15103062B2AD84C
:1026F000844B503989B20DF10A02186800F0A3FE2C
:10270000014608B1421C04D1052220460AF0C6FF4A
:10271000A8E7838842889D1A0389C088181ABDF8E3
:102720000A3023704B8840F2333203EB5503534396
:102730009B0A63708B7920716A4303EB5003920A02
:10274000A370E2708EE758293AD12B6802229B6869
:1027500003A92846984701287FF777AF694BBDF852
:102760000C1018680DF10A0200F06DFE014608B168
:10277000431C04D1062220460AF090FF2FE18388F3
:1027800042889D1A0389C088181ABDF80A30237040
:102790004B8840F2333203EB550353439B0A63707B
:1027A0008B7920716A4303EB5003920AA370E270A5
:1027B000B1F90A205B2312FB03F3DB1163710EE115
:1027C00070294AD10DF10A034E480093052203AB4C
:1027D0000021006800F0B6FEBDF80A602EB91A228A
:1027E000002120460AF05AFFFBE0FF2E84BFFF23A2
:1027F0002370039B98BF267000200433054640F2E7
:10280000333E82B2B2421BD2198833F8022C9F8821
:102810008A1A59887F1A33F8041C617033F8021C35
:1028200001EB52010EFB01F1890AA17099786771E1
:102830000EFB02F201EB5701920AE170227104E0F3
:102840006570A570E570257165710130052803F18B
:102850000A0304F10504D4D1C3E0A1F17103062BEE
:1028600054D80DF10A0327480093703903AB0622B0
:1028700089B2006800F066FEBDF80A502DB9192231
:10288000002120460AF00AFF31E0FF2D88BFFF2318
:102890004FF0000003998CBF23702570064640F26C
:1028A000333E83B2AB4217D24A888B88B1F808C056
:1028B000CF889B1A02EB53020EFB02F2920A62705F
:1028C0008A79C7EB0C070EFB03F302EB57029B0A56
:1028D000A270E370277103E06670A670E67026713F
:1028E0000130062801F10A0104F10404D9D11920AC
:1028F00078E000BFA4980110F55E0110FA5E0110A7
:10290000FF5E011004980110A098011078294AD1A7
:102910000DF10A0334480093042203AB0821006838
:1029200000F010FEBDF80A60002EA8D0FF2E84BF74
:10293000FF232370039B98BF26700025043328468D
:1029400040F2333EAAB2B2421FD2198833F8022CA9
:102950009F888A1A59887F1A33F8041C617033F8EB
:10296000041C090AA17033F8021C01EB52010EFB92
:1029700001F1890AE1709978A7710EFB02F201EB6F
:102980005701920A2171627105E06070A070E070D9
:1029900020716071A0710135042D03F10A0304F167
:1029A0000604CFD1A3E7422916D10F4B00221868A5
:1029B000114600F048FD431E033303D90023237062
:1029C00001200FE0428883889B1A02EB530340F2F8
:1029D000333253439B0AF2E70120207002E00620C5
:1029E00000E01A2005B0F0BD0498011010B5094BA5
:1029F0001B78062B0A4602D1FFF730FD10BD072BCE
:102A000002D1FFF715FE10BD034B0146186800F018
:102A1000BBFC10BDA898011004980110072838B518
:102A2000054647D8254C206810B103685B68984775
:102A3000234B1D70013D062D30D8DFE805F0040959
:102A40000F12151D27001F4B18682060002129E078
:102A50001D4B18682060012200211CE01B4B1B68E5
:102A600008E01B4D012101E0194D00212868FDF708
:102A700007FD2B68236017E0134D012128682060B3
:102A8000FFF7D6F800220121286804E00E4B1868F1
:102A9000206000220121FFF70FF905E0094B1868BB
:102AA0002060012100F050F9206803681B689847F6
:102AB000002038BD4FF0FF3038BD00BFA498011092
:102AC000A8980110AC98011050980110B09801100E
:102AD00000980110F0B5214D214F224A224E85B0B9
:102AE00000242146019400940123284604F084FD2B
:102AF00054230093019401231C4A1021384604F00A
:102B00007BFD4FF496430093214604230194184A19
:102B1000304604F071FD22460DF10B01384604F0F9
:102B200043FD144B9DF80B101868FFF781F82246FF
:102B300003A9304604F038FD0F4B0399186800F0E4
:102B40000FFB22460DF10A01284604F02DFD9DF8E9
:102B50000A00FFF763FF05B0F0BD00BFD85F0110AA
:102B60003B600110035F0110A0600110E65F0110DF
:102B70004760011050980110B098011010B5084C32
:102B80002046FFF79DF8204600F040F9204600F06F
:102B9000F1FAFDF777FCFFF79DFF002010BD00BFA5
:102BA0005D270010014B1868704700BFA498011002
:102BB00042698069101A7047044B0020C3F818025C
:102BC000034B4FF40002C3F8802070470010104000
:102BD00000E100E0F0B500240346A646944217D079
:102BE0009D695869401B00280DDDDE689F6801352E
:102BF000701C37F816609D615D68D860A84204D1EA
:102C0000C3F80CE001E0224602E00E550134E5E78E
:102C10001046F0BD0D4B0E484FF48042C3F814220D
:102C20009622016811F0040F09490BD1013AF8D13D
:102C3000C3F8142210220868400703D4013AFAD1DD
:102C4000012070470020C3F81402704700101040A4
:102C500014610F4073B5054690F83D00D0B10022D5
:102C600004210D480D4E04F0B4F801A804F0CCFA8C
:102C70002846FFF7CFFF044628B9019804F0CAFAA6
:102C8000B042F5D900E0012403480122042104F0F8
:102C9000A0F8204602B070BD00500C4020A10700F3
:102CA00038B50F4B042405469C63F022052303210D
:102CB000012004F02DF821460523F022012004F024
:102CC00027F8012313211846F02204F021F8054BC0
:102CD0004FF400021A602846FFF7BCFF002038BD01
:102CE0000010104000E100E038B590F83D30044697
:102CF00023B3426B836B9A4216D090F830507DB963
:102D000090F83C300133DBB2052B80F83C3013D116
:102D1000FFF7A0FF0A4804F073FF84F83C500BE073
:102D2000002380F83C3007E0064B4FF48042C3F8A4
:102D300014220022C3F81422636BA363002038BD61
:102D4000CC6001100010104080F83D10044B21B100
:102D50004FF48042C3F818227047C3F81812704726
:102D600000101040F0B5244B03601026044689B0D3
:102D7000466020200F46FEF749FB0025A060E56075
:102D800025616561A561E6612020FEF73FFB1B4BD5
:102D900007930F2320626562A5620293E762042312
:102DA00002A91748039504950695059303F0BAFF09
:102DB000134A082593680193013DFBD10121104876
:102DC00003F0FEFF04210E4804F00DF80122042157
:102DD0000B4803F0FEFF0B4B83F817530A4B84F8A4
:102DE000305020466563A56384F83C5084F83D501C
:102DF000C3F8185209B0F0BDB860011000CB280C20
:102E000000500C4000E100E00010104038B50546CD
:102E10004020FEF7F9FA29460446FFF7A3FF014BCD
:102E20001C6038BDAC98011070B5C56804460E46EC
:102E300045B9016803694068490098474008E06067
:102E400058B1A560A3686268591C32F81330A160BC
:102E50003380E368013BE360012070BD0269436990
:102E600070B50468D31AE31A002B0CDDC5684668F8
:102E70006B1C0132A342C36026F81510026104D115
:102E80000023C36001E0002070BD012070BD000080
:102E9000F7B590F83D202A4B054682B3294A4FF4F6
:102EA0008041C2F814120021C2F8141204229E6854
:102EB0001A621C4600F11C07E36813F002030BD0F2
:102EC0000DF106013846FFF7AFFF08B9ADF806006F
:102ED000BDF80630A360EFE706F47F42B2F5B44FC9
:102EE00006D0B2F5B64F04D1B1B2281DFFF7B6FF38
:102EF000012385F830306B6B01336B631DE00422D6
:102F00009E681A621C4600F11C07E3689B070BD5FC
:102F10000DF106013846FFF787FF08B9ADF8060046
:102F2000BDF80630A360F0E706F47F43B3F5B64F73
:102F300003D1B1B2281DFFF791FF03B0F0BD00BF70
:102F400000500C4000101040014B1868FFF7A0BF64
:102F5000AC9801108269C069101A704790F834303B
:102F600013B942681360136000207047F0B5002465
:102F700003462546944217D09869DE69801B0028D5
:102F80000EDD1869DE68471C1F61305C0855D86982
:102F90001E690130D8619868864203D11D6101E045
:102FA000224601E00134E5E71046F0BD08B5F02205
:102FB00001230021022003F0ABFE01231946F02279
:102FC000022003F0A5FE0023F0220321012003F0DC
:102FD0009FFE0023F0220421012003F099FE034B01
:102FE0004FF080721A60002008BD00BF00E100E0D1
:102FF00008B5F02204230021022003F089FE0423F7
:10300000F0220121022003F083FE034B4FF0807277
:10301000C3F88020002008BD00E100E0F7B50446B9
:103020000020626884F83400936803F00E03042BD8
:1030300016D11368E169A269511AA268521A824234
:10304000DBB22FDD6269E168551C65618B54A369B1
:1030500062690133A361A3689A4223D1606121E0D0
:103060000C2B02D1136801931CE0022B1AD11025FE
:103070000127E66A36B9236B216A606A9847E062E5
:1030800060B1A662A36A626A591CA162D25CE36A5B
:1030900084F83470013BE36263681A60013D15F007
:1030A000FF05E6D103B0F0BD014B1868FFF7B6BFCE
:1030B000B09801102DE9FF412026264B03600446FD
:1030C0008660304690460F46FEF7A0F90025E06086
:1030D000266225616561A561E5613046FEF796F9D6
:1030E0004FF496430193032360628DF8093001A9E0
:1030F000194BC4F830803846A562E562676084F8F1
:103100003450039301268DF808508DF80A5003F0CF
:1031100029FF694660688DF802508DF803508DF8DC
:1031200000608DF8016003F0EFFF3146606804F045
:1031300009F832462946606803F0C8FF60683246E5
:10314000314603F0C3FF054B204683F8185304B003
:10315000BDE8F081DC60011000CB280C00E100E04C
:1031600008B5034A406803F05FFE002008BD00BFB9
:1031700000CB280C38B505463820FEF745F92A461D
:1031800003490446FFF796FF024B1C6038BD00BFA1
:1031900000100840B0980110838842889A1A038969
:1031A000C0881B1A03FB02F010B58B884C880A8973
:1031B0001C1BCB88D31A6343984203DBCCBF01208E
:1031C000002010BD4FF0FF3010BD2DE9F0418846C2
:1031D0001146044603F08CF804F5D27604F51A770C
:1031E000354630461C3606F049FCBE42F9D1142360
:1031F000C4F88432A4F87E32072300266422A4F89F
:1032000088320823A4F87C22A4F88A3284F87A62EF
:10321000C4F89062C4F8A08184F88C624FF47A708C
:10322000FEF7F4F8C4F868023220FEF7EFF8A4F8CD
:103230006C62C4F87002A4F88062A4F88262284626
:103240001C3506F0A5FCAF42F9D12046BDE8F0815F
:103250006429C0F8843288BF64219DF80030A0F84A
:103260007C12A0F87E2280F88C320020704713B5C3
:103270009DF8004061F302048DF80040BDF8004065
:1032800062F3CB04BDF80220ADF8004063F30902FD
:10329000ADF80220BDF810201344BDF80420013918
:1032A00063F309021C2303FB010000F5D270694699
:1032B000ADF8042006F0BEFC02B010BD112A2DE9C5
:1032C000F0415BD990F87A32002B57D1B0F88242A6
:1032D000B0F87822944254D2D0F880322BB94AF612
:1032E000552321F8023B092400E008244AF656231E
:1032F0000B80B0F88232D0F874724FF00C0E0EFBD7
:1033000003F337F803C0A1F804C0B0F882520EFBF3
:103310000575AB886A889A1A92B24A81B0F88252CF
:103320000EFB05752B89ED885B1B9BB28B81B0F87A
:1033300082520EFB05756E8806EB5206B6B2CE8041
:10334000B0F882520EFB05751A44ED8805EB530563
:10335000ADB20D81B0F882820EFB087762447F899E
:10336000CF813A44B31815FA83F34B80B0F8823218
:103370000133A0F882326000BDE8F0810020BDE892
:10338000F0811846BDE8F0810F2A2DE9F04105468D
:103390000C4655D9B0F88032B0F86C62B34206D30F
:1033A00090F88C721FB1BDE8F041FFF787BF95F828
:1033B0007A02002844D1B34243D22BB94AF65522AF
:1033C00024F8022B082000E00720D5F868624AF6AE
:1033D000552203EB8303228036F81380A4F804807F
:1033E00002335900A1F1020C36F8133036F80C7094
:1033F000DF1B01F1020EBFB2314467818B8836F8C2
:103400000E10591A89B2A1817A1808EB020336F816
:103410000C2002EB5707BFB2E78017FA83F236F8A9
:103420000E3003EB51039BB2238113FA82F36380C6
:10343000B5F880320133A5F880324000BDE8F08154
:103440000020BDE8F08190F87A322DE9F041002BA0
:1034500072D100293BD10AB101231380D0F89032F8
:10346000002B6BD1B0F86C721D464FF00A0EBD42B6
:1034700011DAD0F868220EFB0522013591885688B2
:1034800014898E1BD188611A71438B423CBFC0F8EE
:1034900090220B46EBE7B0F8787200254FF00C0E47
:1034A000BD4211DAD0F874220EFB05220135918855
:1034B000568814898E1BD188611A71438B423CBF98
:1034C000C0F890220B46EBE7D0F8903236E007299F
:1034D00017D8B0F86CE21E461C464FF00A0C744533
:1034E00027DA0CFB04F5D0F8687207EB05087D5B62
:1034F0008D4204D10136002B08BF4346B6B20134D9
:10350000EDE7B0F878E21E461C464FF00C0C74450F
:103510000FDA0CFB04F5D0F8747207EB05087D5B3D
:103520008D4204D10136002B08BF4346B6B20134A8
:10353000EDE71AB1168001E04FF0FF331846BDE801
:10354000F08100002DE9F84F90F87A420A9F054675
:103550000E46914698462CB14FF0FF33C8F8003024
:103560000023B2E05A4B29BBB0F86C12D0F86802C5
:103570000A220AF0E5F84FF00A0E4E45B5F86C3213
:10358000D5F8700213DA9E4211DAD5F868420EFBC4
:1035900006F162184318645A445251885980918840
:1035A0009980D1881289D9801A810136E5E7C8F857
:1035B00000008AE0082928D1B0F87812D0F8740207
:1035C0000C220AF0BDF823464FF00A0E4B45D5F801
:1035D0007042B5F8782213DA934211DAD5F87462A2
:1035E0000EFB03F031182218365A265248885080B4
:1035F00088889080C8880989D08011810133E5E7E7
:10360000C8F800403A80BDE8F88F07292AD80A2276
:10361000B0F86C12D0F868020AF092F8B5F86CC2F3
:10362000234622464FF00A0A62454ADA0AFB02F4B0
:10363000D5F868120819095BB14211D14B450DD27A
:10364000D5F870E20EEB04012EF8046044884C803B
:1036500084888C80C4880089CC80088101339BB227
:103660000132E1E70C22B0F87812D0F874020AF0C7
:1036700067F8B5F878C2234622464FF00C0A4FF09F
:103680000A0B62451DDA0AFB02F1D5F87442601894
:10369000615AB14213D14B450FD2D5F870E20BFB02
:1036A00002F40EEB04012EF8046044884C808488F8
:1036B0008C80C4880089CC80088101339BB20132A0
:1036C000DFE7D5F87022C8F800203B80BDE8F88F0E
:1036D000092F001010B5D0F868420C60B0F86C12D9
:1036E0001160D0F874221A60029BB0F878221A6038
:1036F00010BD002070B50346044604EB84069442D6
:10370000B6B218D001EB460531F816602EB901307B
:10371000002B08BF2B4680B20AE04BB11E806E889A
:103720005E80AE889E80EE88DE802D891D810A3302
:103730000134A4B2E1E770BD2DE9F04F02EB820243
:1037400085B093B20020019302468146019B9342CB
:1037500042D031F8123001EB4204002B36D0A3885E
:103760006688B4F806E0B4F808C00293531D019DC2
:103770009BB29D422AD031F813704FEA430B01EB04
:103780000B050FB36F88B5F804A0B5F806802D8936
:103790000395BE420CD8029D55451AD3C64505D89F
:1037A000039DAC4502D321F80B900BE0BE420BD336
:1037B000029D554508D8C64506D3039DAC4503D8A0
:1037C000A4F80090013080B20533D0E7053292B200
:1037D000BCE7BE42F8D3EEE705B0BDE8F08F2DE9B7
:1037E000F04F89B002EB8202029093B20020039363
:1037F0000090039B009A934200F08F8031F81240B2
:103800005300002C7ED09C1C0D1931F804E0049567
:103810001C1D0D1931F804C005959C1D0D190833A8
:1038200006950C5B31F80380CD18079513460533D8
:103830009BB20193019D039BAB4263D02B464FEAA1
:10384000450931F8133001EB0905002B58D06E887B
:10385000AF88EB882D89B64511D3029AB2F888B2A9
:10386000C7EB0E0ADA450ADC9C4201D8984503D220
:10387000AC4204D8A84502D3049B1E803AE0BC4564
:1038800011D8029AB2F888B2CCEB060ADA450ADC03
:103890009C423CD8984503D2AC4204D8A84539D3C1
:1038A000059B1F8026E09C4211D3029AB2F888B291
:1038B000C5EB040ADA450ADCB64501D8B44503D2A3
:1038C000BE4504D8BC4502D3069A138012E0A84531
:1038D00016D8029AB2F888A2C8EB030353450FDC4E
:1038E000B64501D8B44503D2BE4509D8BC4507D377
:1038F000079B1D804FF00003013021F8093080B292
:10390000019B94E7009A053293B2009371E7AC42B1
:10391000C4D9CAE79C42DCD3C7E709B0BDE8F08F41
:103920002DE9F74F4B88B2F80290B1F80480B1F856
:1039300006A0098900919088D188B2F808B0019159
:103940001EB20FFA89F5AE420FFA88F70FFA8AF421
:10395000BDF900E0BDF904100FFA80FC0FFA8BF2FC
:103960000EDB8C4201DC8E4505DA944205DC96457F
:1039700001DA8C4232DB181A2EE0AE4234DC3AE037
:103980008C422EDC8E4505DA944206DC964501DA3F
:103990008C4214DBC8EB09001EE08C420FDBAE4208
:1039A00001DCAF4205DA664506DC674501DAAE4266
:1039B0001DDBCBEB0A000FE08C4224DC21E0AE42A1
:1039C00001DCAF4205DA66451DDC674501DAAE422F
:1039D00019DB9DE80C00981A00B216E0AE42F2DC4A
:1039E0000CE09442D6DDDCE78C42ECDBDBE78C427A
:1039F00009DCAF42ECE78C42C4DDD2E78E45E0DB68
:103A0000C8E7AE42DDDD47F6FF7003B0BDE8F08FDA
:103A100070B50E4609880446154639B313882BB392
:103A2000994223D090F88C32022B04D194F88C3236
:103A3000022B07D10EE001F0070102F02EFD012854
:103A400014D1F3E72978204601F0070102F025FDA3
:103A500001280BD12A4631462046FFF761FFB4F812
:103A60008A329842CCBF0020012070BD002070BD7A
:103A70002BB188884B88C1189088538804E0088946
:103A8000CB88C1181089D3880344022093FBF0F33C
:103A9000C3EB610000B20028BCBF404200B27047D7
:103AA000F7B5538890880F4618448B8849880B4493
:103AB0005B10C3EB600007EE900AF8EEE77A16465B
:103AC00017EE900A08F07AFDFB88044638890D4607
:103AD0001844F18833890B445B10C3EB600007EE98
:103AE000900AF8EEE77A17EE900A08F067FD224692
:103AF0002B460EF0D1FE00220B4B08F0B3FD08A3BD
:103B0000D3E9002308F0D8FE08F0DEFF07EE900AA4
:103B1000FDEEE77ACDED017ABDF9040003B0F0BD0A
:103B2000000000C0CA210940008066402DE9F0472E
:103B300086B080469DF838A00D461646994600246A
:103B4000B44201AF0CD00A2C0AD055F824205346B9
:103B500049464046FFF78CFF27F814000134EFE791
:103B6000012039462B460246B24214D20A2A12D00C
:103B7000B1F800E031F8024FA64508D9586821F89D
:103B8000024C1C68A1F800E083E81100002001321B
:103B900092B20433E8E70028E2D006B0BDE8F0872F
:103BA0002DE9F04F0025B2F900A08DB0A8462E46B1
:103BB0004FF0640B56453FDA51F82600438884885D
:103BC000E41A0389C0881B1A63430BFB03F04FF40C
:103BD000FA74B0FBF4F000904FF4C8705843B0FB97
:103BE000FBF01844019000200746BE4217D051F860
:103BF00027E0BEF80240BEF80490C4EB0909BEF805
:103C00000840BEF806E0CEEB040404FB09FE009C6D
:103C1000744504D8019C744524BF013080B201373B
:103C2000BA45E2DC854226BF634628464FF00108CC
:103C300001369C460546BDE7B8F1000F01D1A2F858
:103C400000800023B2F900E01D4664274FF4FA78A3
:103C50004FF4C879754501DB002022E0092BFBD821
:103C600051F82540A0886688B4F806A0861B2089F4
:103C7000CAEB0000704307FB00F6B6FBF8F6B4454C
:103C80000DD309FB00F6B6FBF7F63044844506D8A1
:103C90000CAE581C06EB830343F8284C83B2013565
:103CA000D8E7984206DA02AC54F8204041F82040A8
:103CB0000130F6E713800DB0BDE8F08FF0B50023BA
:103CC000B2F900608BB01D461846B0429CB217DABC
:103CD0000A2B14D051F820704DF823700130B042F7
:103CE00001DB0133F1E751F82040B4F800E03C88F3
:103CF0008EEA04046407F4D101300125EFE71C4685
:103D00004DB10023A34205DA5DF8230041F82300FA
:103D10000133F7E714800BB0F0BDF0B5D0F868427E
:103D2000B0F86C620A270020B0420CDA07FB00F5FD
:103D30000130635B23F0070E964502BF03F00703D3
:103D40000B436353F0E7F0BD2DE9F04FB0F86C3250
:103D5000D0F868720A2699B0044606FB03764FF045
:103D6000000BB7423BD207F10A0807F11405A5F191
:103D70000A02B24201D34746F3E739462046FFF72D
:103D800047FE50B338F80A3C35F80A2C072B11D8F7
:103D9000072A17D80BF101021FFA82FB4FEACB0268
:103DA00092B2134328F80A3C35F80A3C1A4325F826
:103DB0000A2C12E0072A05D823F00703134325F83D
:103DC0000A3C0AE035F80A2C072A06D9072B9EBFC1
:103DD00022F00702134328F80A3C0A35C7E7D4F853
:103DE0006892B14520D2CA463AF80A5B072D19D924
:103DF00025F00705ADB2D046B04513D2B8F8007033
:103E0000072F0CD927F00707BFB2BD4207D04246A3
:103E100049462046FFF7FCFD002840F0528108F19A
:103E20000A08E9E7D146DCE7D4F86832D4F87452DE
:103E300003F577730B930023A4F8783201220A93D9
:103E40005A45D4F8683200F31E810B998D4280F0F8
:103E50001A8192B2D00007920021BDF82820ADF857
:103E6000362080B20A46B34210D2092A0EDC1F88DF
:103E700027F00707874207D118AF511C07EB8202D2
:103E800042F8283C0AB201210A33ECE709B1ADF847
:103E900036200DF136020EA92046FFF781FEBDF94E
:103EA0003620012A40F3EB80002306930593049308
:103EB0009A4603931F460EA90FFA83F851F82390F0
:103EC0000398B9F80210089118A901EB870E089918
:103ED0005EF828ECB9F804C0BEF802E08E4588BF51
:103EE0004746B9F80610099118A901EB8A0E0999FD
:103EF0005EF828ECBEF806E08E4588BFC24618A9D9
:103F000001EB800E01465EF828EC0498BEF804E050
:103F1000E64538BF4146039118A9B9F808E001EB1E
:103F20008009014659F8289CB9F80890F14538BF36
:103F3000414604910899C1EB0C0C05996144059127
:103F40000999C1EB0E0E0699013371440FFA83FEF5
:103F500072450691AFDC18AB194603EB8707039B4C
:103F600057F8289C01EB8300049B50F8280CB9F803
:103F700002708088A88001EB8A0E01EB83015EF855
:103F800028EC51F8281CBEF806C00989A5F806C01F
:103F90004FF06408C01BCCEB010C6F80298108FB3B
:103FA00000F0059991FBF2F708FB0CFC069990FBD9
:103FB000F7F091FBF2F89CFBF8FC6045D4BF0023BE
:103FC00001210EAFD3BF009300914B46734692B2CE
:103FD00039462046FFF7AAFD0DF136023946204644
:103FE000FFF76CFEBDF93630012B48DD052BC4BF51
:103FF0000523ADF836300022BDF93630964611B2B1
:1040000099420ADA57F82210098801F0070141EABB
:10401000CE0E1FFA8EFE0132F1E7013B1AB20021EB
:10402000002A10DB18A800EB8200013A50F8287C27
:10403000388800F0070040EAC101BDF82800388048
:1040400089B212B2ECE78E4508D218AA02EB8303BC
:10405000A5F800E053F8282C0E9906E018AA02EB08
:10406000830329800E9A53F8281C2046FFF718FD79
:10407000B4F87832688101330C35A4F87832079AA5
:10408000013212B2DCE603F10A050027A5F10A03AA
:104090009E421FD994F88C32032B04D135F80A3C88
:1040A000072B0CD913E035F80A1C07290FD8022B6F
:1040B0000DD0C9B2204602F0F0F9012807D00A3528
:1040C000E4E73A4629462046FFF727FEA7E625F80B
:1040D0000A7CF4E719B0BDE8F08F38B500F5D2746A
:1040E00000F51A75204605F0D7FC20461C3405F073
:1040F00018FDAC42F6D138BD2DE9F04F89B0002350
:104100000746ADF81830ADF81E30ADF81A30ADF8EE
:104110001C301C4603934FF0FF3906A9D7F8A001C5
:10412000059303F0F1FF059B0028F6D0BDF8185069
:104130004FF6FD72954200F2AF80002BEDDB5DBBC8
:104140007CB1BDF810100BF10102521A4B1E92B255
:1041500000929BB21FFA89F2E1B23846FFF787F866
:1041600003460399039A052909F1010902F10102A5
:1041700005D0002403924FF6FF76A046CDE70593C5
:104180004D4B00241868012101F0E4FC4FF6FF7646
:10419000A0460394059BC0E705F0070A14200AF126
:1041A000FF3100FB0171BDF81E20BDF91CE0D1F804
:1041B000E000002A08BF01224FEACE3E9EFBF2FE3D
:1041C000864522DDD1F8E40086451EDABDF91AE005
:1041D000D1F8E8004FEACE3E9EFBF2FE864514DDA4
:1041E000D1F8EC108E4510DAD7F86C118A420CDB4E
:1041F000ED10AAB20592BDF81420ADF81820AA1B44
:10420000052A42D8D04540D113E0002C85D0BDF816
:1042100010100BF10102521A4B1E92B200929BB287
:104220001FFA89F2E1B23846FFF721F8034600246D
:1042300073E7B4B1A2452CD00126BDF810100BF1E4
:104240000102521A4B1E92B200929BB21FFA89F2DF
:10425000E1B23846FFF70BF803464EB12E46D04682
:10426000E5E744460496B8F1000F12D12E4654E714
:10427000059B0222013B00929BB21FFA89F2514634
:104280003846FEF7F4FF0346E8E7002CF0D000269E
:10429000D3E7AB462E4640E73846FFF71EFFBDF892
:1042A00018304FF6FE7083424FF0FF3018BF0020E9
:1042B00009B0BDE8F08F00BF049901102DE9F74F58
:1042C0000446FFF719FF002811DA04F5D27504F54A
:1042D0001A7628461C3505F05BFCB542F9D100235F
:1042E000A4F86C32A4F878324FF0FF30B6E0002525
:1042F000012684F87A62C4F89052A4F86C52A4F8AB
:10430000785294F88C32022B07D0F1B2204602F09A
:10431000C4F8431E5842584100E001201C23B4F861
:104320006C82D4F8681203FB064308EB880AD3F8C2
:10433000983152464FF0000CEBB3B4F86CE2B4F88D
:104340007C72BE4537D2B4F87E72BC4533D2D3F806
:1043500020E018B1BEF1090F29DD03E0D4F8847222
:10436000774524DCB3F804E0B3F81290CEF3C80E1E
:104370001FFA8EF7C9EB0707012F18DDB3F9147088
:10438000019701EB4207B3F910B021F81260A7F8CA
:1043900002B0BDF804B0A7F804B0A7F80690A7F8DB
:1043A00008E0B4F86C720137A4F86C7205321B682F
:1043B0000CF1010CC0E770B901EB4A07B4F86C22AC
:1043C000C8EB020292B239462046FFF708FA10B154
:1043D0000544ADB2F2E70136082E92D1B4F86C2252
:1043E000D4F868122046FFF7A7F994F88C322844D5
:1043F00085B283B3B4F86C22D4F868320A2101FB89
:104400000233C4F874322046FFF79EFC65B1B4F85D
:104410006C22D4F868122046FFF76BF9B4F86C32BE
:10442000181AA4F86C0203E094F88C32002BEED139
:104430000023A4F88032A4F8823284F87A3204F59A
:10444000D27504F51A7428461C3505F0A1FBAC4260
:10445000F9D1002002E0002DEAD0D8E703B0BDE892
:10446000F08FFF2928BFFF21FF2A28BFFF22FF2846
:1044700042EA012228BFFF2042EA0040704710B5FF
:10448000C4B21C60C0F30723C0F307401360086088
:1044900010BD000000B589B007AB06AA05A9FFF75B
:1044A000EEFF059B069A934238BF1346079A934244
:1044B00038BF134607EE903AB8EE677ADFED167A0A
:1044C000C7EE876A07EE902AB8EE677A27EE267A5B
:1044D000FCEEC77ACDED017ADDED067A9DF8042079
:1044E000B8EE677A27EE267AFCEEC77ACDED027A2F
:1044F000DDED057A9DF80810F8EE677A67EEA67A8A
:10450000FCEEE77ACDED037A9DF80C0009B05DF87A
:1045100004EBFFF7A6BF00BF00007F43014B1878F4
:10452000704700BF0D8B0110014B1878704700BF1A
:104530000A8B0110014B1878704700BF0B8B0110DC
:10454000014B1878704700BF0C8B0110014B187895
:10455000704700BFB498011038B5094D0121286893
:1045600004F090F802210402286804F08BF820433C
:1045700004020521286804F085F8204338BD00BFF7
:10458000C898011038B5094D1621286804F07AF84A
:1045900010210402286804F075F820430402002169
:1045A000286804F06FF8204338BD00BFC898011098
:1045B00008B5034B0178186804F064F808BD00BF23
:1045C000C898011038B50568094CEAB22068052181
:1045D00004F042F8C5F307222068022104F03CF8F9
:1045E0002068C5F30742012104F036F8002038BDE9
:1045F000C898011038B50568094CEAB22068002156
:1046000004F02AF8C5F307222068102104F024F8EA
:104610002068C5F30742162104F01EF8002038BDBB
:10462000C898011038B50B4D02780446242128683B
:1046300004F012F822782868142A86BF143AD2B2FD
:104640000022252104F008F8034B22781A7000207C
:1046500038BD00BFC89801100C8B01102DE9F7433D
:10466000134D0646884610220921286803F0F4FFFE
:104670000024A146444510DA3719315D7A7828685C
:1046800003F0EAFF315D286803F0FCFF7B7883428A
:1046900018BFCDF804900234ECE700220921286805
:1046A00003F0DAFF0348FFF7BDFF03B0BDE8F08376
:1046B000C89801100C8B01102DE9F041274C0746DA
:1046C0001321206803F0DEFF03210546206803F074
:1046D000D9FF234A3B78117899420646904633D059
:1046E00093B905F0F7021321206803F0B5FF06F037
:1046F0007F020321206803F0AFFF40220E212068D3
:1047000003F0AAFF032214E0012B14D105F0F702F5
:104710001321206803F0A0FF66F07F02D2B20321CC
:10472000206803F099FF48220E21206803F094FFCF
:104730003322212105E0022B0CD145F00802D2B230
:104740001321206803F088FF3B7888F800300020B0
:10475000BDE8F0814FF0FF30BDE8F081C89801104E
:10476000B498011038B50A4C05469721206803F02B
:1047700089FF2B781BB140F00A02D2B201E000F0B1
:10478000F5022068972103F067FF002038BD00BFC5
:10479000C898011008B5044B0A780178186803F02E
:1047A0005BFF002008BD00BFC898011070B5104E17
:1047B00005783378AB4219D00E4C5DB92A463821C2
:1047C000206803F049FFE1229621206803F044FFAE
:1047D00035700BE010223821206803F03DFFF122F4
:1047E0009621206803F038FF01233370002070BD4C
:1047F0000A8B0110C898011038B50B4C0578237846
:10480000AB420FD0094B35B9A0221321186803F031
:1048100023FF257006E01868A522132103F01CFF72
:1048200001232370002038BD0B8B0110C8980110A4
:1048300038B50A4D04782B78A3420AD014B91E214A
:10484000074803E0012C06D106481E21FFF706FFAA
:104850002C70002038BD4FF0FF3038BD0D8B01109B
:10486000F06001100E61011038B50C46154905467F
:1048700009F092FA20B92046BDE83840FFF7D2BED1
:104880001149284609F088FA50B923781BB9FFF777
:1048900079FE0E4B18602046BDE83840FFF7ACBFEC
:1048A0000B49284609F078FA50B923781BB9FFF76D
:1048B00053FE084B18602046BDE83840FFF776BF2E
:1048C00038BD00BF2C6101103E610110C498011079
:1048D00057610110C09801102DE9F04393B098463C
:1048E000BDF86C50BDF87040BDF8689004FB05F34E
:1048F00007468B424FF0FF30164611904FD81311E8
:1049000009D108EB0503B3F5A06F4DDC09EB0403F7
:10491000B3F5487F15E0012B09D108EB0503B3F58A
:10492000207F41DC09EB0403B3F5C87F09E0022BCB
:1049300038D108EB0503B3F5A07F35DC09EB0403A0
:10494000C82B31DC12A806F00F0300F8053DFFF775
:104950006FFF002828DB164B0220B3F900200990D6
:1049600011AB00210C93079005900390042311488C
:1049700001930E910D910B910A940895CDF8189022
:10498000CDF81080029700960123006801F017F817
:10499000119848B9084B1F609D80DC8004E06FF0DF
:1049A000010001E06FF0020013B0BDE8F08300BF2A
:1049B000088B011008990110B89801102DE9F047F3
:1049C0008AB01E46129D204F90461A882B88069367
:1049D0008A460021099103FB02F102230593049208
:1049E00003931A4A9DF8503008910293B121412354
:1049F0008DE80C0081460791642339464FF49032CC
:104A0000139800F0EDFC2988029131880191B8F8E3
:104A1000001000910446C0F5903100F18050BAF8C2
:104A2000003099F8002000F50020FFF755FF33888B
:104A30002A88804602FB03423946139800F091F918
:104A400040460AB0BDE8F087000008104241383106
:104A50001FB501240294079C0194069C0094FFF763
:104A6000ADFF04B010BD000030B5502387B0002466
:104A70008DE81800484A494801234FF48071012508
:104A800002F0BAFD4649454802F0B0FE2B46454AC1
:104A9000019440F202210095434802F0ADFD4049E7
:104AA000414802F0A3FE0194009404233F4A404889
:104AB000294602F0A1FD2B463E4A0194009440F2A3
:104AC00002213D4802F098FD35493B4802F08EFE38
:104AD0002B463A4A019440F202210095384802F0F0
:104AE0008BFD2F49364802F081FE04230194009487
:104AF0002E4A3448294602F07FFD224603A9274862
:104B000002F052FD22460DF10D01274802F04CFD46
:104B100022460DF10E01284802F046FD22460DF115
:104B20000F01274802F040FD03A8FFF77BFD0DF1C0
:104B30000D00FFF761FE9DF80D4084B9224D2A68F3
:104B400032B1234604211A4802F02CFE2C6006E004
:104B500004A9174802F028FD04A8FFF74BFD0DF14A
:104B60000E00FFF723FE9DF80E309BB99DF80F4015
:104B700084B9164D2A6832B123460421114802F047
:104B800011FE2C6006E005A90E4802F00DFD05A8F7
:104B9000FFF718FD07B030BD6A6101102C610110EC
:104BA000D9450010DB6101103E6101104871011010
:104BB000226201102C620110576101109D620110E8
:104BC0001F6301103E630110C4980110C0980110CA
:104BD00013B50420FCF718FC6021044603F0F6FC32
:104BE000134BA02120461C6003F04CFD28211148E6
:104BF000FFF734FD02A8002400F8014DFFF718FE6E
:104C00000D4B0E49186800F039F90D4B0D49186825
:104C1000224600F0E1FE0C4BA042188003DBFFF7B8
:104C200023FF204601E04FF0FF3002B010BD00BF6F
:104C3000C8980110186D011004990110506B0110F3
:104C40000899011018690110088B0110024B00220D
:104C50001A60DA809A807047B89801107047002077
:104C6000704710B50023934203DACC5CC45401337F
:104C7000F9E710BD90F83B007047836813B14360BB
:104C8000002383607047F0B5002351F823200468A7
:104C90009E008F19002A32D0092B30DC251D12F816
:104CA000012C0560256815B96FF00200F0BD12F007
:104CB000800F12D102F00F02012A03D18A59127813
:104CC0002A701AE0022A03D18A5912882A8014E035
:104CD000042AE9D18A59126802E0A12A8A5901D12D
:104CE0002A600AE012682A6004F108020260626821
:104CF0000133002AD8D07C6814600133C5E7231D36
:104D0000036020680028CFD1F0BDF8B590F83B30A3
:104D100005460E4617460BB98A061FD5EC6824B91E
:104D2000330606D54FF0FF300EE04FF0FF30002481
:104D30000AE00020F8BD2B683A46DB683146284679
:104D400098470028F5D0013495F83930A342F2DCB9
:104D5000002805DA002385F83B30F8BD6FF0050028
:104D6000F8BD10B504468068636810B9A36061603F
:104D700001E08B420FD1236AD21AE26094F83A2004
:104D800062B918212046FFF7C0FF02462046FFF710
:104D900074FF104610BD6FF0040010BD002010BD60
:104DA000F8B5858E0E4940352F01044638460CF083
:104DB0007BFD064688B13A46002108F06FFCA28EC2
:104DC000216B1201304608F0CFFB206B08B1FCF7D5
:104DD00021FB2663A5860020F8BD6FF00400F8BD16
:104DE000C0850110F8B506460F460025B38E2CB2DB
:104DF0009C4209DA2301326BD05840B1394608F0A1
:104E0000CBFF20B92046F8BD4FF0FF30F8BD01358B
:104E1000ECE7F8B504460D461646E5B129462046AE
:104E2000FFF7E0FF002810DAA78E002210B2B84288
:104E300005DA0301216BCB580132002BF6D1B842C1
:104E400003D12046FFF7ACFFE7E7226B0301D1183F
:104E5000D5504E60F8BD4FF0FF30F8BD38B505466F
:104E60001C46FFF7D6FF0028A1BF2A6B02EB0010FB
:104E7000C4600020B8BF4FF0FF3038BD38B50546DC
:104E800001F1080454F8081C39B1234654F8042CE5
:104E90002846FFF7E3FF1834F4E7084638BD41859C
:104EA00070478184704738B504461546FFF79AFF6E
:104EB000236BB5F9002003EB00131A8138BD000005
:104EC000437E70B5054613B16FF0040070BD11B993
:104ED0004469803401E001F18004094920460CF066
:104EE000E3FC06460028EFD06A69696808F03CFBDD
:104EF000686808B1FCF78EFA6E606C61002070BDC6
:104F0000C08501102DE9F04F884685B01F46054643
:104F100040B190F83A30006A13B100F1040902E0A0
:104F2000814600E081460123C9EB020A01933B68F8
:104F300093F800B01A1D3A60BBF1000F00F0DF805B
:104F40000BF0BF02012A09F1010408EB090608F879
:104F500009B008D13A68111D1268396009F10206DA
:104F600008F80420B1E0022A13D13A68E60748BFE6
:104F700024F0010402F1040148BF0234396008EB57
:104F80000401B2F9002001F801BCA61C28F8042095
:104F90009BE0042A02D0BBF1640F11D13A68A0074C
:104FA00018BF24F0030402F1040118BF043439606F
:104FB00008EB0401126801F801BC48F8042016E06F
:104FC000142A16D13A68073222F0070202F10801CA
:104FD0003960D2E9000107F077FDA1071CBF24F07A
:104FE0000304043408EB040202F801BC1060261D1F
:104FF0006BE0A12A23D13A68111D3960136802932E
:10500000184609F0A5F8421CA618AAF108018E421C
:105010000FD915B96FF0040075E0314628460392A8
:10502000FFF74EFF00286EDBD5F80480D5F814A0FA
:10503000039A029908EB040008F096FA45E012067C
:105040005FD53968081D386008680BF030013029D9
:105050000BF00F0201BF00230BF08F0B86F800B09E
:105060000193A3071CBF24F00304043408EB0401DC
:10507000261D01F801BC511E314218BF5142019B4F
:1050800048F804001CBF0E40B618F3B100FB02F351
:10509000F418AAF1080294420DD90293002DB9D058
:1050A00021462846FFF70CFF00282CDBD5F80480AA
:1050B000D5F814A0029B39680A1D3A6008EB060077
:1050C0001A46096808F050FA26462DB1AA7E1AB988
:1050D0001BF0400F18BF4E46AAF108039E4201D8AC
:1050E000B14624E7002D95D031462846FFF7E8FE6B
:1050F000002808DBD5F80480D5F814A0F0E748466E
:1051000001E06FF0020005B0BDE8F08F0B4610B56E
:10511000426941680446FFF7F5FE0028A1BF236AF3
:10512000C01AE060002010BD0EB4F3B59DF81C500D
:1051300090F83A60C768182D08BF002302A908BF7D
:1051400080F83A3008AB41F8043D0446FFF7DEFF33
:10515000182D03D094F83A3033B928B90022182119
:105160002046FFF7D2FDE76084F83A6002B0BDE860
:10517000F04003B070472DE9F3410D880368003516
:1051800018BF01250E46044629461B6890469847DD
:10519000338884F83B50E38698F80030003318BF1A
:1051A000012300210746A3760191E37E00910122AD
:1051B0002046FFF7B9FF384602B0BDE8F081F0B5F0
:1051C000838EB1F90050076B89B000249D420646DA
:1051D0008DF81F404FEA051511DA7B597A1973B122
:1051E000D16861B105940494CA680392A122019127
:1051F000029200922146FFF797FF20460FE00DF143
:105200001F03A1228DE80C00002105910491039356
:1052100002927B593046FFF787FF4FF0FF3009B00D
:10522000F0BD2DE9F0431C460423C36001F02003C8
:1052300089B005468846914603F0FF06BBB10123BD
:10524000A02980F83A3004D194E80600FFF72BFE3D
:10525000A2E0A12904D194E80600FFF78CFF9BE0AF
:10526000A22940F097802168FFF7A9FF94E0182950
:1052700005D1036821469B6898473046ADE0838E90
:105280009A4280F2A680002AC0F2A380036B03EB4F
:1052900002135F68002F00F09C803046C3B20130DB
:1052A00054F82320002AF9D1012285F83A2013B9B5
:1052B0002846B84770E0012B03D129462068B8473B
:1052C0006AE0022B04D12A4694E80300B84763E061
:1052D000032B04D12B4694E80700B8475CE0042B6D
:1052E00004D1009594E80F00B84755E0052B06D18E
:1052F00023690093019594E80F00B8474CE0062B12
:1053000008D16369019323690093029594E80F0023
:10531000B84741E0072B0AD1A3690293636901935F
:1053200023690093039594E80F00B84734E0082BF5
:105330000CD1E3690393A369029363690193236921
:105340000093049594E80F00B84725E0092B0ED18F
:10535000236A0493E3690393A36902936369019346
:1053600023690093059594E80F00B84714E00A2BD1
:1053700010D1636A0593236A0493E3690393A369D5
:1053800002936369019323690093069594E80F00E3
:10539000B84701E04FF0FF304FFA88F80023B8F12A
:1053A000000F85F83A3017DA6A682B6AD0502B6BF9
:1053B00003EB091308F03F01B3F9082041F0400165
:1053C0002846FFF7A2FC02462846FFF756FC104687
:1053D00003E04FF0FF3000E0002009B0BDE8F083AB
:1053E0000CB413B504AC02AB54F8042B43F8044DD1
:1053F000FFF788FD02B0BDE8104002B070472DE90C
:10540000F84307468846154602F10A091646002465
:10541000731B4445DBB22CD24E452ED03A5D06F8C4
:10542000012B110604F1010002F00F0307D45A1EEC
:1054300002421EBF5A421040C0181C18E8E702F092
:10544000BF02A12A05D1384408F082FE0234044488
:10545000DEE782071CBF20F0030004305A1E3C58D0
:10546000043002421EBF5A421040C01804FB03041D
:10547000CEE70020E854BDE8F8834FF0FF30BDE8E8
:10548000F8832DE9F0414FF0000804460E4615461A
:105490004746B04542D20A2F46D014F8082012F0F1
:1054A000800F08F1010002F00F010FFA87FE0BD107
:1054B0004B1E03421EBF4A4210404018231845F8B5
:1054C0002E3001EB000826E002F0BF02A12A08D12D
:1054D000204445F82E0008F03BFE08F10208804405
:1054E00019E083071CBF20F00300043004EB000C1C
:1054F000225845F82EC004307B1C4F1E07421CBFAB
:105500004F423840DBB218BF4018271845F82370C7
:1055100002FB01081F467B1CDFB2BAE73BB200204A
:1055200045F82300BDE8F0814FF0FF30BDE8F08181
:1055300010B58CB0144601AAFFF7A3FF002803DBC7
:1055400001A92046FFF79FFB0CB010BD10B500234A
:105550004418A04204D010F8012B13449BB2F8E782
:10556000581880B210BD000038B543680446197160
:10557000104818606168E06AE3688B600368CA805D
:105580001D68638D4022A847002812DBE268236A69
:105590001A44402A0CD9637E53B9E06A61680368F3
:1055A000403A1D68638D4031A84700EAE07038BD7D
:1055B000002038BD5555AAAA13B5034609B1592292
:1055C00000E09522D86A8DF8072002685B8D146888
:1055D0000DF107010122A0470028B4BF6FF065005C
:1055E000002002B010BD00002DE9F7430446C06A58
:1055F000904602680F46556803B1A38C01220DF155
:105600000501A847051E64DB02D14FF0FF3560E0BD
:10561000DFF8C89000269DF80530E06A1B0643EAD3
:1056200016264E45238D026808D055680DF10501F8
:105630000122A847051E4CDBEDD1E6E756686168FC
:10564000226AB047002842DB236A9D42DDDB6368A3
:105650001B783B706768256AB7F902307E68A8F846
:1056600000302946E6603846FFF770FFC5F1400577
:105670008046E06AAE4228BF2E46036806F1020962
:105680005D68238D4A463946A847051E21DB4D45F6
:10569000BBDB6168022231440DF10600FFF7E1FA3D
:1056A00031466068FFF752FFBDF806304044834240
:1056B00006D1266101212046FFF77EFF002508E084
:1056C00000212046FFF778FF6FF0010501E06FF041
:1056D0006405284603B0BDE8F08300BF5555AAAA6B
:1056E0002DE9F843DFF890900446884617461E4699
:1056F000E06A616803685D680EB1A38C00E0334620
:105700004022A847051E1ADB032DF1DD63681A68E5
:105710004A45EDD11B7988F800306368B3F906205B
:105720009968236A3A80E16019446369994209D90A
:105730002046FFF7C5FB002804DABDE8F8832846B9
:10574000BDE8F883E668236A1E44B54201D2637E51
:105750002BB10020BDE8F8830544AE42F9D9E06AD8
:1057600061680368721B5F68238D2944B84700286D
:10577000F2DABDE8F88300BF5555AAAA2DE9F34730
:10578000036AC1681944436903319942044605D943
:10579000FFF796FB061E01DA304659E00027B846AF
:1057A0002169E568A94249D2E38ED4F82CE060680B
:1057B0006D1A9D4228BF1D46DEF800300144D3F823
:1057C0000490E38CEA1C7046C847002838DBAB1C09
:1057D000B34238DA236961682B44022211F803A02E
:1057E000013319440DF10600FFF73BFAD4F810908D
:1057F0006068691C4844FFF7A9FEBDF80630834283
:105800000FD1D04502BF4D4408F1010825614FF08A
:105810000101204608BF5FFA88F80027FFF7CCFE99
:10582000BEE700212046FFF7C7FE7B1C94F8382016
:10583000DBB29A420AD90237FFB2B1E7002007E093
:105840006FF0640004E04FF0FF3001E06FF0030000
:1058500002B0BDE8F0872DE9F84304460F469046B4
:105860001D469DF82090FFF708FA067E26B14B46AC
:10587000FFF736FF16E001364B46424639462046D2
:10588000FFF7B2FE831C07D194F838309E42F2D362
:105890006FF00300BDE8F88308B1BDE8F883204647
:1058A000FFF76CFFD8B93B78206A13F0400F0ED099
:1058B00063681844042200F8042C6168236A0B44CE
:1058C00003F8012CE368206A13440438E36063683A
:1058D000E1682A461844BDE8F843FFF7D2BDBDE8A9
:1058E000F8832DE9F0414FB290B0002F04460D46E9
:1058F0009046049303DB90F83B30002B5AD00026EF
:105900002046E660FFF7B9F904A92046FFF7FEFB41
:10591000002851DB002FAABF80238DF80D508DF891
:105920000D3042469DF80D102046B8BF3546FFF7B2
:10593000ECF9002840D1E9073AD4E06A03689B6893
:10594000984705AE012300930DF10E0233460DF189
:105950000D012046FFF77FFF70BB9DF80D104A0632
:1059600010D42368BDF90E205F6820463346B8473F
:10597000E06A0368DB689847A38C9842E2D96FF02D
:10598000640019E0AB070DD5049B1A1D04921A6838
:10599000002AF9D0002356F8231042F8231039B119
:1059A0000133F8E7314604A8FFF76DF9002803DB5F
:1059B000002001E06FF0050010B0BDE8F0810CB4EC
:1059C00007B504AB33F9042B0193FFF78AFF03B04B
:1059D0005DF804EB02B0704730B5044689B00D465F
:1059E00012B1FFF716FA01E04FF0FF3007AB0022CB
:1059F0000493022302900193059203920095A12340
:105A0000A0212046FFF7DBFF0028ACBFBDF91C003A
:105A10004FF0FF3009B030BD30B500228BB00446E6
:105A20000D4609B1C38E00E00B4606920DF123012D
:105A30000392E27E0591029209A90122049101924A
:105A4000009300220223A1212046FFF7B8FF00287F
:105A500008DB9DF82330099884F83B50003318BFC9
:105A60000123A3760BB030BD10B504460B68E1628C
:105A700008461B6900219847C0F340002076E06A81
:105A8000036800211B69984700F001006076E06A16
:105A900003685B699847237EE0860BB10C2300E026
:105AA00008232362637E63B1E06A036801211B69F6
:105AB00098476060E06A036802211B69984760614B
:105AC00005E08020606106490BF0EEFE6060207FFB
:105AD00028B120460121BDE81040FFF79DBF10BD51
